{
  "_format": "hh-sol-artifact-1",
  "contractName": "vMinter",
  "sourceName": "contracts/vMinter.sol",
  "abi": [
    {
      "inputs": [
        {
          "internalType": "uint256",
          "name": "_emissionStartTs",
          "type": "uint256"
        },
        {
          "internalType": "address",
          "name": "_tokenomicsParams",
          "type": "address"
        }
      ],
      "stateMutability": "nonpayable",
      "type": "constructor"
    },
    {
      "inputs": [],
      "name": "PRBMathSD59x18__DivInputTooSmall",
      "type": "error"
    },
    {
      "inputs": [
        {
          "internalType": "SD59x18",
          "name": "x",
          "type": "int256"
        },
        {
          "internalType": "SD59x18",
          "name": "y",
          "type": "int256"
        }
      ],
      "name": "PRBMathSD59x18__DivOverflow",
      "type": "error"
    },
    {
      "inputs": [
        {
          "internalType": "SD59x18",
          "name": "x",
          "type": "int256"
        }
      ],
      "name": "PRBMathSD59x18__Exp2InputTooBig",
      "type": "error"
    },
    {
      "inputs": [
        {
          "internalType": "SD59x18",
          "name": "x",
          "type": "int256"
        }
      ],
      "name": "PRBMathSD59x18__ExpInputTooBig",
      "type": "error"
    },
    {
      "inputs": [],
      "name": "PRBMathSD59x18__MulInputTooSmall",
      "type": "error"
    },
    {
      "inputs": [
        {
          "internalType": "SD59x18",
          "name": "x",
          "type": "int256"
        },
        {
          "internalType": "SD59x18",
          "name": "y",
          "type": "int256"
        }
      ],
      "name": "PRBMathSD59x18__MulOverflow",
      "type": "error"
    },
    {
      "inputs": [
        {
          "internalType": "uint256",
          "name": "x",
          "type": "uint256"
        },
        {
          "internalType": "uint256",
          "name": "y",
          "type": "uint256"
        }
      ],
      "name": "PRBMath__MulDiv18Overflow",
      "type": "error"
    },
    {
      "inputs": [
        {
          "internalType": "uint256",
          "name": "x",
          "type": "uint256"
        },
        {
          "internalType": "uint256",
          "name": "y",
          "type": "uint256"
        },
        {
          "internalType": "uint256",
          "name": "denominator",
          "type": "uint256"
        }
      ],
      "name": "PRBMath__MulDivOverflow",
      "type": "error"
    },
    {
      "anonymous": false,
      "inputs": [
        {
          "indexed": false,
          "internalType": "address",
          "name": "stakerFactoryAddress",
          "type": "address"
        }
      ],
      "name": "NewStakerFactory",
      "type": "event"
    },
    {
      "anonymous": false,
      "inputs": [
        {
          "indexed": false,
          "internalType": "address",
          "name": "vestingWallet",
          "type": "address"
        },
        {
          "indexed": false,
          "internalType": "address",
          "name": "beneficiary",
          "type": "address"
        },
        {
          "indexed": false,
          "internalType": "uint256",
          "name": "startTs",
          "type": "uint256"
        },
        {
          "indexed": false,
          "internalType": "uint256",
          "name": "duration",
          "type": "uint256"
        }
      ],
      "name": "NewVesting",
      "type": "event"
    },
    {
      "anonymous": false,
      "inputs": [
        {
          "indexed": true,
          "internalType": "address",
          "name": "previousOwner",
          "type": "address"
        },
        {
          "indexed": true,
          "internalType": "address",
          "name": "newOwner",
          "type": "address"
        }
      ],
      "name": "OwnershipTransferred",
      "type": "event"
    },
    {
      "anonymous": false,
      "inputs": [
        {
          "indexed": false,
          "internalType": "address",
          "name": "to",
          "type": "address"
        },
        {
          "indexed": false,
          "internalType": "uint256",
          "name": "amount",
          "type": "uint256"
        }
      ],
      "name": "TransferRewards",
      "type": "event"
    },
    {
      "inputs": [],
      "name": "ALLOCATION_POINTS_FACTOR",
      "outputs": [
        {
          "internalType": "uint128",
          "name": "",
          "type": "uint128"
        }
      ],
      "stateMutability": "view",
      "type": "function"
    },
    {
      "inputs": [],
      "name": "algorithmicEmissionBalance",
      "outputs": [
        {
          "internalType": "uint256",
          "name": "",
          "type": "uint256"
        }
      ],
      "stateMutability": "view",
      "type": "function"
    },
    {
      "inputs": [
        {
          "internalType": "address",
          "name": "",
          "type": "address"
        }
      ],
      "name": "allocationPoints",
      "outputs": [
        {
          "internalType": "uint256",
          "name": "",
          "type": "uint256"
        }
      ],
      "stateMutability": "view",
      "type": "function"
    },
    {
      "inputs": [
        {
          "internalType": "address",
          "name": "to",
          "type": "address"
        },
        {
          "internalType": "uint256",
          "name": "amount",
          "type": "uint256"
        }
      ],
      "name": "arbitraryTransfer",
      "outputs": [],
      "stateMutability": "nonpayable",
      "type": "function"
    },
    {
      "inputs": [
        {
          "internalType": "address",
          "name": "to",
          "type": "address"
        },
        {
          "internalType": "uint256",
          "name": "amount",
          "type": "uint256"
        }
      ],
      "name": "burnGVrsw",
      "outputs": [],
      "stateMutability": "nonpayable",
      "type": "function"
    },
    {
      "inputs": [
        {
          "internalType": "address",
          "name": "staker",
          "type": "address"
        }
      ],
      "name": "calculateCompoundRateForStaker",
      "outputs": [
        {
          "internalType": "uint256",
          "name": "",
          "type": "uint256"
        }
      ],
      "stateMutability": "view",
      "type": "function"
    },
    {
      "inputs": [
        {
          "internalType": "address",
          "name": "staker",
          "type": "address"
        }
      ],
      "name": "calculateTokensForStaker",
      "outputs": [
        {
          "internalType": "uint256",
          "name": "",
          "type": "uint256"
        }
      ],
      "stateMutability": "view",
      "type": "function"
    },
    {
      "inputs": [],
      "name": "emissionStartTs",
      "outputs": [
        {
          "internalType": "uint256",
          "name": "",
          "type": "uint256"
        }
      ],
      "stateMutability": "view",
      "type": "function"
    },
    {
      "inputs": [],
      "name": "gVrsw",
      "outputs": [
        {
          "internalType": "contract GVrsw",
          "name": "",
          "type": "address"
        }
      ],
      "stateMutability": "view",
      "type": "function"
    },
    {
      "inputs": [
        {
          "internalType": "address",
          "name": "to",
          "type": "address"
        },
        {
          "internalType": "uint256",
          "name": "amount",
          "type": "uint256"
        }
      ],
      "name": "mintGVrsw",
      "outputs": [],
      "stateMutability": "nonpayable",
      "type": "function"
    },
    {
      "inputs": [
        {
          "internalType": "address",
          "name": "beneficiary",
          "type": "address"
        },
        {
          "internalType": "uint256",
          "name": "startTs",
          "type": "uint256"
        },
        {
          "internalType": "uint256",
          "name": "duration",
          "type": "uint256"
        },
        {
          "internalType": "uint256",
          "name": "amount",
          "type": "uint256"
        }
      ],
      "name": "newVesting",
      "outputs": [
        {
          "internalType": "address",
          "name": "vestingWallet",
          "type": "address"
        }
      ],
      "stateMutability": "nonpayable",
      "type": "function"
    },
    {
      "inputs": [],
      "name": "owner",
      "outputs": [
        {
          "internalType": "address",
          "name": "",
          "type": "address"
        }
      ],
      "stateMutability": "view",
      "type": "function"
    },
    {
      "inputs": [],
      "name": "renounceOwnership",
      "outputs": [],
      "stateMutability": "nonpayable",
      "type": "function"
    },
    {
      "inputs": [
        {
          "internalType": "address[]",
          "name": "_stakers",
          "type": "address[]"
        },
        {
          "internalType": "uint256[]",
          "name": "_allocationPoints",
          "type": "uint256[]"
        }
      ],
      "name": "setAllocationPoints",
      "outputs": [],
      "stateMutability": "nonpayable",
      "type": "function"
    },
    {
      "inputs": [
        {
          "internalType": "address",
          "name": "_newStakerFactory",
          "type": "address"
        }
      ],
      "name": "setStakerFactory",
      "outputs": [],
      "stateMutability": "nonpayable",
      "type": "function"
    },
    {
      "inputs": [],
      "name": "stakerFactory",
      "outputs": [
        {
          "internalType": "address",
          "name": "",
          "type": "address"
        }
      ],
      "stateMutability": "view",
      "type": "function"
    },
    {
      "inputs": [
        {
          "internalType": "address",
          "name": "",
          "type": "address"
        }
      ],
      "name": "stakers",
      "outputs": [
        {
          "internalType": "uint128",
          "name": "totalAllocated",
          "type": "uint128"
        },
        {
          "internalType": "uint128",
          "name": "totalTransferred",
          "type": "uint128"
        },
        {
          "internalType": "uint128",
          "name": "totalCompoundRate",
          "type": "uint128"
        },
        {
          "internalType": "uint128",
          "name": "lastUpdated",
          "type": "uint128"
        }
      ],
      "stateMutability": "view",
      "type": "function"
    },
    {
      "inputs": [],
      "name": "tokenomicsParams",
      "outputs": [
        {
          "internalType": "address",
          "name": "",
          "type": "address"
        }
      ],
      "stateMutability": "view",
      "type": "function"
    },
    {
      "inputs": [
        {
          "internalType": "address",
          "name": "newOwner",
          "type": "address"
        }
      ],
      "name": "transferOwnership",
      "outputs": [],
      "stateMutability": "nonpayable",
      "type": "function"
    },
    {
      "inputs": [
        {
          "internalType": "address",
          "name": "to",
          "type": "address"
        },
        {
          "internalType": "uint256",
          "name": "amount",
          "type": "uint256"
        }
      ],
      "name": "transferRewards",
      "outputs": [],
      "stateMutability": "nonpayable",
      "type": "function"
    },
    {
      "inputs": [],
      "name": "unlockedBalance",
      "outputs": [
        {
          "internalType": "uint256",
          "name": "",
          "type": "uint256"
        }
      ],
      "stateMutability": "view",
      "type": "function"
    },
    {
      "inputs": [
        {
          "internalType": "uint256",
          "name": "",
          "type": "uint256"
        }
      ],
      "name": "vestingWallets",
      "outputs": [
        {
          "internalType": "address",
          "name": "",
          "type": "address"
        }
      ],
      "stateMutability": "view",
      "type": "function"
    },
    {
      "inputs": [],
      "name": "vrsw",
      "outputs": [
        {
          "internalType": "contract Vrsw",
          "name": "",
          "type": "address"
        }
      ],
      "stateMutability": "view",
      "type": "function"
    }
  ],
  "bytecode": "0x60c06040523480156200001157600080fd5b5060405162004c4f38038062004c4f833981016040819052620000349162000191565b6200003f3362000125565b60808290526001600160a01b03811660a0526af8277896582678ac0000006001556040513090620000709062000175565b6001600160a01b039091168152602001604051809103906000f0801580156200009d573d6000803e3d6000fd5b50600580546001600160a01b0319166001600160a01b03929092169190911790556040513090620000ce9062000183565b6001600160a01b039091168152602001604051809103906000f080158015620000fb573d6000803e3d6000fd5b50600680546001600160a01b0319166001600160a01b039290921691909117905550620001d09050565b600080546001600160a01b038381166001600160a01b0319831681178455604051919092169283917f8be0079c531659141344cd1fd0a4f28419497f9722a3daafe3b4186f6b6457e09190a35050565b610c87806200398c83390190565b61063c806200461383390190565b60008060408385031215620001a557600080fd5b825160208401519092506001600160a01b0381168114620001c557600080fd5b809150509250929050565b60805160a0516137506200023c60003960008181610226015261146f01526000818161034201528181610800015281816109cb01528181610ce801528181610e2a0152818161140801528181611447015281816115480152818161157501526115de01526137506000f3fe60806040523480156200001157600080fd5b5060043610620001695760003560e01c806388b2c89311620000d3578063d356d8291162000086578063d356d8291462000391578063d6305c8c14620003a5578063dff7d83e14620003bc578063e027dcd314620003d3578063f2fde38b14620003ea578063fa4158da146200040157600080fd5b806388b2c89314620002a25780638da5cb5b14620002ac5780639168ae7214620002be578063925c3e47146200033c578063933e0a521462000364578063ab6ad452146200038757600080fd5b80634d3a8114116200012c5780634d3a8114146200020957806358d6b9e214620002205780635f0636391462000248578063715018a6146200026a5780637c01ae2b146200027457806382723192146200028b57600080fd5b8063170f37db146200016e578063197acce914620001a25780632945f5b214620001c857806329ee230614620001dc57806343485df214620001f5575b600080fd5b620001856200017f366004620027df565b62000418565b6040516001600160a01b0390911681526020015b60405180910390f35b620001b9620001b33660046200280f565b62000443565b60405190815260200162000199565b60075462000185906001600160a01b031681565b620001f3620001ed3660046200282f565b620004c8565b005b60065462000185906001600160a01b031681565b620001f36200021a3660046200282f565b6200066f565b620001857f000000000000000000000000000000000000000000000000000000000000000081565b62000251606481565b6040516001600160801b03909116815260200162000199565b620001f3620007da565b62000185620002853660046200285e565b620007f2565b620001f36200029c3660046200282f565b620009c9565b620001b960015481565b6000546001600160a01b031662000185565b62000308620002cf3660046200280f565b600260205260009081526040902080546001909101546001600160801b0380831692600160801b90819004821692808316929190041684565b604080516001600160801b039586168152938516602085015291841691830191909152909116606082015260800162000199565b620001b97f000000000000000000000000000000000000000000000000000000000000000081565b620001b9620003753660046200280f565b60036020526000908152604090205481565b620001b962000ce0565b60055462000185906001600160a01b031681565b620001b9620003b63660046200280f565b62000d9c565b620001f3620003cd3660046200282f565b62000e1e565b620001f3620003e4366004620028eb565b62000ee3565b620001f3620003fb3660046200280f565b620012f2565b620001f3620004123660046200280f565b62001371565b600481815481106200042957600080fd5b6000918252602090912001546001600160a01b0316905081565b6001600160a01b0381166000818152600260209081526040808320815160808101835281546001600160801b038082168352600160801b91829004811683870152600190930154808416838601520490911660608201529383526003909152812054909190620004b5908290620013cf565b604001516001600160801b031692915050565b60008111620004f45760405162461bcd60e51b8152600401620004eb906200295e565b60405180910390fd5b60075460408051635fcbd28560e01b8152905133926001600160a01b031691639168ae72918491635fcbd2859160048083019260209291908290030181865afa15801562000546573d6000803e3d6000fd5b505050506040513d601f19601f820116820180604052508101906200056c919062002983565b6040516001600160e01b031960e084901b1681526001600160a01b0390911660048201526024016020604051808303816000875af1158015620005b3573d6000803e3d6000fd5b505050506040513d601f19601f82011682018060405250810190620005d9919062002983565b6001600160a01b031614620006025760405162461bcd60e51b8152600401620004eb90620029a3565b600654604051632770a7eb60e21b81526001600160a01b0384811660048301526024820184905290911690639dc29fac906044015b600060405180830381600087803b1580156200065257600080fd5b505af115801562000667573d6000803e3d6000fd5b505050505050565b60008111620006925760405162461bcd60e51b8152600401620004eb906200295e565b60075460408051635fcbd28560e01b8152905133926001600160a01b031691639168ae72918491635fcbd2859160048083019260209291908290030181865afa158015620006e4573d6000803e3d6000fd5b505050506040513d601f19601f820116820180604052508101906200070a919062002983565b6040516001600160e01b031960e084901b1681526001600160a01b0390911660048201526024016020604051808303816000875af115801562000751573d6000803e3d6000fd5b505050506040513d601f19601f8201168201806040525081019062000777919062002983565b6001600160a01b031614620007a05760405162461bcd60e51b8152600401620004eb90620029a3565b6006546040516340c10f1960e01b81526001600160a01b03848116600483015260248201849052909116906340c10f199060440162000637565b620007e462001618565b620007f0600062001674565b565b6000620007fe62001618565b7f0000000000000000000000000000000000000000000000000000000000000000421015620008415760405162461bcd60e51b8152600401620004eb90620029cb565b6200084b62000ce0565b8211156200089c5760405162461bcd60e51b815260206004820152601a60248201527f6e6f7420656e6f75676820756e6c6f636b656420746f6b656e730000000000006044820152606401620004eb565b60055460405186916001600160a01b03169086908690620008bd90620027d1565b6001600160a01b03948516815293909216602084015267ffffffffffffffff9081166040840152166060820152608001604051809103906000f0801580156200090a573d6000803e3d6000fd5b50600480546001810182556000919091527f8a35acfbc15ff81a39ae7d344fd709f28e8600b4aa8c65c6b64bfe7fe36bd19b0180546001600160a01b0319166001600160a01b03838116919091179091556005549192506200096f91168284620016c4565b604080516001600160a01b03808416825287166020820152908101859052606081018490527f3d9afabb0107756d8454b2b6cc49f5c5dc85643dfa276f6040a4a26add55881d9060800160405180910390a1949350505050565b7f000000000000000000000000000000000000000000000000000000000000000042101562000a0c5760405162461bcd60e51b8152600401620004eb90620029cb565b6000811162000a2f5760405162461bcd60e51b8152600401620004eb906200295e565b60075460408051635fcbd28560e01b8152905133926001600160a01b031691639168ae72918491635fcbd2859160048083019260209291908290030181865afa15801562000a81573d6000803e3d6000fd5b505050506040513d601f19601f8201168201806040525081019062000aa7919062002983565b6040516001600160e01b031960e084901b1681526001600160a01b0390911660048201526024016020604051808303816000875af115801562000aee573d6000803e3d6000fd5b505050506040513d601f19601f8201168201806040525081019062000b14919062002983565b6001600160a01b03161462000b3d5760405162461bcd60e51b8152600401620004eb90620029a3565b336000818152600260209081526040808320815160808101835281546001600160801b038082168352600160801b9182900481168387015260019093015480841683860152049091166060820152938352600390915290205462000ba3908290620013cf565b6020810151815162000bb6919062002a04565b6001600160801b031682111562000c045760405162461bcd60e51b81526020600482015260116024820152706e6f7420656e6f75676820746f6b656e7360781b6044820152606401620004eb565b818160200181815162000c18919062002a2f565b6001600160801b03908116909152336000908152600260209081526040808320865192870151928516600160801b9386168402178155908601516060870151908516941690910292909217600192830155815485935062000c7b90849062002a5d565b909155505060055462000c99906001600160a01b03168484620016c4565b604080516001600160a01b0385168152602081018490527f9ffbf50289a7a68340713701e9c2c0b22a6edc0b16140bf4d3ced3fcd0ba1283910160405180910390a1505050565b600062000d0d7f00000000000000000000000000000000000000000000000000000000000000006200171d565b6001546005546040516370a0823160e01b81523060048201526001600160a01b03909116906370a0823190602401602060405180830381865afa15801562000d59573d6000803e3d6000fd5b505050506040513d601f19601f8201168201806040525081019062000d7f919062002a77565b62000d8b919062002a5d565b62000d97919062002a5d565b905090565b6001600160a01b0381166000818152600260209081526040808320815160808101835281546001600160801b038082168352600160801b9182900481168387015260019093015480841683860152049091166060820152938352600390915281205490919062000e0e908290620013cf565b516001600160801b031692915050565b62000e2862001618565b7f000000000000000000000000000000000000000000000000000000000000000042101562000e6b5760405162461bcd60e51b8152600401620004eb90620029cb565b62000e7562000ce0565b81111562000ec65760405162461bcd60e51b815260206004820152601a60248201527f6e6f7420656e6f75676820756e6c6f636b656420746f6b656e730000000000006044820152606401620004eb565b60055462000edf906001600160a01b03168383620016c4565b5050565b62000eed62001618565b60408051608081018252600080825260208201819052918101829052606081018290526007546001600160a01b031660005b86811015620010d05787878281811062000f3d5762000f3d62002a91565b905060200201602081019062000f5491906200280f565b6001600160a01b0316826001600160a01b0316639168ae728a8a8581811062000f815762000f8162002a91565b905060200201602081019062000f9891906200280f565b6001600160a01b0316635fcbd2856040518163ffffffff1660e01b8152600401602060405180830381865afa15801562000fd6573d6000803e3d6000fd5b505050506040513d601f19601f8201168201806040525081019062000ffc919062002983565b6040516001600160e01b031960e084901b1681526001600160a01b0390911660048201526024016020604051808303816000875af115801562001043573d6000803e3d6000fd5b505050506040513d601f19601f8201168201806040525081019062001069919062002983565b6001600160a01b031614620010925760405162461bcd60e51b8152600401620004eb90620029a3565b858582818110620010a757620010a762002a91565b9050602002013584620010bb919062002aa7565b9350620010c88162002ac2565b905062000f1f565b5060005b86811015620012e85760026000898984818110620010f657620010f662002a91565b90506020020160208101906200110d91906200280f565b6001600160a01b0316815260208082019290925260409081016000908120825160808101845281546001600160801b038082168352600160801b9182900481169683019690965260019092015480861694820194909452920490921660608201529350620011cd9084906003908b8b868181106200118f576200118f62002a91565b9050602002016020810190620011a691906200280f565b6001600160a01b03166001600160a01b0316815260200190815260200160002054620013cf565b82600260008a8a85818110620011e757620011e762002a91565b9050602002016020810190620011fe91906200280f565b6001600160a01b0316815260208082019290925260409081016000208351928401516001600160801b03938416600160801b9185168202178255918401516060909401519383169390921602919091176001909101558360648787848181106200126c576200126c62002a91565b905060200201356200127f919062002ade565b6200128b919062002b16565b600360008a8a85818110620012a457620012a462002a91565b9050602002016020810190620012bb91906200280f565b6001600160a01b03168152602081019190915260400160002055620012e08162002ac2565b9050620010d4565b5050505050505050565b620012fc62001618565b6001600160a01b038116620013635760405162461bcd60e51b815260206004820152602660248201527f4f776e61626c653a206e6577206f776e657220697320746865207a65726f206160448201526564647265737360d01b6064820152608401620004eb565b6200136e8162001674565b50565b6200137b62001618565b600780546001600160a01b0319166001600160a01b0383169081179091556040519081527f97303bcbbd80657f3f6920465fdc07a04ca1e9352b5f31bd46800e91e94e91369060200160405180910390a150565b600082606001516001600160801b0316118015620013f9575081606001516001600160801b031642115b15620015d757606481620014f87f000000000000000000000000000000000000000000000000000000000000000085606001516001600160801b031662001441919062002a5d565b6200146d7f00000000000000000000000000000000000000000000000000000000000000004262002a5d565b7f00000000000000000000000000000000000000000000000000000000000000006001600160a01b0316636c8ae38c6040518163ffffffff1660e01b8152600401602060405180830381865afa158015620014cc573d6000803e3d6000fd5b505050506040513d601f19601f82011682018060405250810190620014f2919062002a77565b62001789565b62001504919062002b2d565b62001510919062002b5f565b8260400181815162001523919062002a2f565b6001600160801b039081169091526060840151606492508391620015a1916200156f917f0000000000000000000000000000000000000000000000000000000000000000911662002a5d565b6200159b7f00000000000000000000000000000000000000000000000000000000000000004262002a5d565b6200180b565b620015ad919062002b2d565b620015b9919062002b5f565b82518390620015ca90839062002a2f565b6001600160801b03169052505b62001603427f00000000000000000000000000000000000000000000000000000000000000006200188c565b6001600160801b031660609092019190915250565b6000546001600160a01b03163314620007f05760405162461bcd60e51b815260206004820181905260248201527f4f776e61626c653a2063616c6c6572206973206e6f7420746865206f776e65726044820152606401620004eb565b600080546001600160a01b038381166001600160a01b0319831681178455604051919092169283917f8be0079c531659141344cd1fd0a4f28419497f9722a3daafe3b4186f6b6457e09190a35050565b604080516001600160a01b038416602482015260448082018490528251808303909101815260649091019091526020810180516001600160e01b031663a9059cbb60e01b17905262001718908490620018a4565b505050565b60006312cea60062001730834262002a5d565b101562001780576312cea6006b024306c4097859c43c0000004262001756838662002aa7565b62001762919062002a5d565b6200176e919062002ade565b6200177a919062002b16565b62001783565b60005b92915050565b60008284101562001800576312cea600841015620017b357620017ad84836200197d565b620017c1565b6b0167007172db35b6403800005b6312cea600841015620017e057620017da84846200197d565b620017ee565b6b0167007172db35b6403800005b620017fa919062002a04565b62001803565b60005b949350505050565b60008183101562001882576312cea6008310156200183657620018308360006200197d565b62001843565b6af8277896582678ac0000005b6312cea60083101562001863576200185d8360006200197d565b62001870565b6af8277896582678ac0000005b6200187c919062002a04565b62001885565b60005b9392505050565b60008183116200189d578162001885565b5090919050565b6000620018fb826040518060400160405280602081526020017f5361666545524332303a206c6f772d6c6576656c2063616c6c206661696c6564815250856001600160a01b031662001a089092919063ffffffff16565b8051909150156200171857808060200190518101906200191c919062002b88565b620017185760405162461bcd60e51b815260206004820152602a60248201527f5361666545524332303a204552433230206f7065726174696f6e20646964206e6044820152691bdd081cdd58d8d9595960b21b6064820152608401620004eb565b60006200188562001a05620019998464015afb52c01962001a19565b620019fe620019ee670de0b6b3a7640000620019e7620019e1620019c8620019c28c8562002bac565b62001a2b565b620019da8b64015afb52c01962001a19565b9062001a34565b62001b0e565b9062001b83565b671cd45b8aa23a85809062001a34565b9062001b95565b90565b606062001803848460008562001c4c565b60006200188562001a05838562002c3d565b60008162001783565b60008282600160ff1b82148062001a4e5750600160ff1b81145b1562001a6d57604051630d01a11b60e21b815260040160405180910390fd5b6000806000841262001a80578362001a85565b836000035b91506000831262001a97578262001a9c565b826000035b9050600062001aac838362001d2f565b90506001600160ff1b0381111562001ae25760405163cdaa009160e01b81526004810189905260248101889052604401620004eb565b6000198585181362001b018162001afd578260000362001a05565b8290565b9998505050505050505050565b60008168023f2fa8f6da5b9d311981121562001b2d5750600092915050565b680736ea4425c11ac631811262001b5b576040516399bb754160e01b815260048101849052602401620004eb565b6714057b7ef767814f81026200180362001b7d670de0b6b3a7640000835b0590565b62001de7565b60006200188562001a05838562002c84565b60008282600160ff1b82148062001baf5750600160ff1b81145b1562001bce5760405163b3c754a360e01b815260040160405180910390fd5b6000806000841262001be1578362001be6565b836000035b91506000831262001bf8578262001bfd565b826000035b9050600062001c1683670de0b6b3a76400008462001ea0565b90506001600160ff1b0381111562001ae25760405163fdd8c1d760e01b81526004810189905260248101889052604401620004eb565b60608247101562001caf5760405162461bcd60e51b815260206004820152602660248201527f416464726573733a20696e73756666696369656e742062616c616e636520666f6044820152651c8818d85b1b60d21b6064820152608401620004eb565b600080866001600160a01b0316858760405162001ccd919062002cfc565b60006040518083038185875af1925050503d806000811462001d0c576040519150601f19603f3d011682016040523d82523d6000602084013e62001d11565b606091505b509150915062001d248783838762001f7b565b979650505050505050565b60008080600019848609848602925082811083820303915050670de0b6b3a7640000811062001d7c5760405163090638d560e41b81526004810186905260248101859052604401620004eb565b6000670de0b6b3a764000085870990508160000362001daa575050670de0b6b3a76400009004905062001783565b620400008184030492109003600160ee1b02177faccb18165bd6fe31ae1cf318dc5b51eee0e1ba569b88cd74c1773b91fac1066902905092915050565b6000818181121562001e4e5768033dd1780914b971141981121562001e0f5750600092915050565b62001e4662001e2662001a0562001b7d8460000390565b6ec097ce7bc90715b34b9f10000000008162001b795762001b7962002b00565b915062001e9a565b680a688906bd8b000000811262001e7c5760405163e69458f960e01b815260048101849052602401620004eb565b670de0b6b3a7640000604082901b056200180362001a058262001ffb565b50919050565b600080806000198587098587029250828110838203039150508060000362001edf5783828162001ed45762001ed462002b00565b049250505062001885565b83811062001f12576040516307639aaf60e41b8152600481018790526024810186905260448101859052606401620004eb565b60008486880960026001871981018816978890046003810283188082028403028082028403028082028403028082028403028082028403029081029092039091026000889003889004909101858311909403939093029303949094049190911702949350505050565b6060831562001fef57825160000362001fe7576001600160a01b0385163b62001fe75760405162461bcd60e51b815260206004820152601d60248201527f416464726573733a2063616c6c20746f206e6f6e2d636f6e74726163740000006044820152606401620004eb565b508162001803565b620018038383620027a4565b600160bf1b67ff000000000000008216156200211157678000000000000000821615620020315768016a09e667f3bcc9090260401c5b67400000000000000082161562002051576801306fe0a31b7152df0260401c5b67200000000000000082161562002071576801172b83c7d517adce0260401c5b671000000000000000821615620020915768010b5586cf9890f62a0260401c5b670800000000000000821615620020b1576801059b0d31585743ae0260401c5b670400000000000000821615620020d157680102c9a3e778060ee70260401c5b670200000000000000821615620020f15768010163da9fb33356d80260401c5b6701000000000000008216156200211157680100b1afa5abcbed610260401c5b66ff00000000000082161562002219576680000000000000821615620021405768010058c86da1c09ea20260401c5b66400000000000008216156200215f576801002c605e2e8cec500260401c5b66200000000000008216156200217e57680100162f3904051fa10260401c5b66100000000000008216156200219d576801000b175effdc76ba0260401c5b6608000000000000821615620021bc57680100058ba01fb9f96d0260401c5b6604000000000000821615620021db5768010002c5cc37da94920260401c5b6602000000000000821615620021fa576801000162e525ee05470260401c5b6601000000000000821615620022195768010000b17255775c040260401c5b65ff000000000082161562002318576580000000000082161562002246576801000058b91b5bc9ae0260401c5b654000000000008216156200226457680100002c5c89d5ec6d0260401c5b65200000000000821615620022825768010000162e43f4f8310260401c5b65100000000000821615620022a057680100000b1721bcfc9a0260401c5b65080000000000821615620022be5768010000058b90cf1e6e0260401c5b65040000000000821615620022dc576801000002c5c863b73f0260401c5b65020000000000821615620022fa57680100000162e430e5a20260401c5b6501000000000082161562002318576801000000b1721835510260401c5b64ff000000008216156200240e576480000000008216156200234357680100000058b90c0b490260401c5b644000000000821615620023605768010000002c5c8601cc0260401c5b6420000000008216156200237d576801000000162e42fff00260401c5b6410000000008216156200239a5768010000000b17217fbb0260401c5b640800000000821615620023b7576801000000058b90bfce0260401c5b640400000000821615620023d457680100000002c5c85fe30260401c5b640200000000821615620023f15768010000000162e42ff10260401c5b6401000000008216156200240e57680100000000b17217f80260401c5b64ff00000000821615620024fc576380000000821615620024385768010000000058b90bfc0260401c5b634000000082161562002454576801000000002c5c85fe0260401c5b63200000008216156200247057680100000000162e42ff0260401c5b63100000008216156200248c576801000000000b17217f0260401c5b6308000000821615620024a857680100000000058b90c00260401c5b6304000000821615620024c45768010000000002c5c8600260401c5b6302000000821615620024e0576801000000000162e4300260401c5b6301000000821615620024fc5768010000000000b172180260401c5b62ff0000821615620025e0576280000082161562002523576801000000000058b90c0260401c5b624000008216156200253e57680100000000002c5c860260401c5b62200000821615620025595768010000000000162e430260401c5b621000008216156200257457680100000000000b17210260401c5b620800008216156200258f5768010000000000058b910260401c5b62040000821615620025aa576801000000000002c5c80260401c5b62020000821615620025c557680100000000000162e40260401c5b62010000821615620025e0576801000000000000b1720260401c5b61ff00821615620026bb576180008216156200260557680100000000000058b90260401c5b6140008216156200261f5768010000000000002c5d0260401c5b61200082161562002639576801000000000000162e0260401c5b611000821615620026535768010000000000000b170260401c5b6108008216156200266d576801000000000000058c0260401c5b6104008216156200268757680100000000000002c60260401c5b610200821615620026a157680100000000000001630260401c5b610100821615620026bb57680100000000000000b10260401c5b60ff8216156200278d576080821615620026de57680100000000000000590260401c5b6040821615620026f7576801000000000000002c0260401c5b60208216156200271057680100000000000000160260401c5b601082161562002729576801000000000000000b0260401c5b60088216156200274257680100000000000000060260401c5b60048216156200275b57680100000000000000030260401c5b60028216156200277457680100000000000000010260401c5b60018216156200278d57680100000000000000010260401c5b670de0b6b3a76400000260409190911c60bf031c90565b815115620027b55781518083602001fd5b8060405162461bcd60e51b8152600401620004eb919062002d1a565b6109cb8062002d5083390190565b600060208284031215620027f257600080fd5b5035919050565b6001600160a01b03811681146200136e57600080fd5b6000602082840312156200282257600080fd5b81356200188581620027f9565b600080604083850312156200284357600080fd5b82356200285081620027f9565b946020939093013593505050565b600080600080608085870312156200287557600080fd5b84356200288281620027f9565b966020860135965060408601359560600135945092505050565b60008083601f840112620028af57600080fd5b50813567ffffffffffffffff811115620028c857600080fd5b6020830191508360208260051b8501011115620028e457600080fd5b9250929050565b600080600080604085870312156200290257600080fd5b843567ffffffffffffffff808211156200291b57600080fd5b62002929888389016200289c565b909650945060208701359150808211156200294357600080fd5b5062002952878288016200289c565b95989497509550505050565b6020808252600b908201526a1e995c9bc8185b5bdd5b9d60aa1b604082015260600190565b6000602082840312156200299657600080fd5b81516200188581620027f9565b6020808252600e908201526d34b73b30b634b21039ba30b5b2b960911b604082015260600190565b602080825260099082015268746f6f206561726c7960b81b604082015260600190565b634e487b7160e01b600052601160045260246000fd5b60006001600160801b038381169083168181101562002a275762002a27620029ee565b039392505050565b60006001600160801b0380831681851680830382111562002a545762002a54620029ee565b01949350505050565b60008282101562002a725762002a72620029ee565b500390565b60006020828403121562002a8a57600080fd5b5051919050565b634e487b7160e01b600052603260045260246000fd5b6000821982111562002abd5762002abd620029ee565b500190565b60006001820162002ad75762002ad7620029ee565b5060010190565b600081600019048311821515161562002afb5762002afb620029ee565b500290565b634e487b7160e01b600052601260045260246000fd5b60008262002b285762002b2862002b00565b500490565b60006001600160801b038083168185168183048111821515161562002b565762002b56620029ee565b02949350505050565b60006001600160801b038084168062002b7c5762002b7c62002b00565b92169190910492915050565b60006020828403121562002b9b57600080fd5b815180151581146200188557600080fd5b60006001600160ff1b038184138284138082168684048611161562002bd55762002bd5620029ee565b600160ff1b600087128281168783058912161562002bf75762002bf7620029ee565b6000871292508782058712848416161562002c165762002c16620029ee565b8785058712818416161562002c2f5762002c2f620029ee565b505050929093029392505050565b600080821280156001600160ff1b038490038513161562002c625762002c62620029ee565b600160ff1b839003841281161562002c7e5762002c7e620029ee565b50500190565b60008083128015600160ff1b85018412161562002ca55762002ca5620029ee565b6001600160ff1b038401831381161562002cc35762002cc3620029ee565b50500390565b60005b8381101562002ce657818101518382015260200162002ccc565b8381111562002cf6576000848401525b50505050565b6000825162002d1081846020870162002cc9565b9190910192915050565b602081526000825180602084015262002d3b81604085016020870162002cc9565b601f01601f1916919091016040019291505056fe6101006040526040516109cb3803806109cb833981016040819052610023916100f0565b6001600160a01b0384166100915760405162461bcd60e51b815260206004820152602b60248201527f7656657374696e6757616c6c65743a2062656e6566696369617279206973207a60448201526a65726f206164647265737360a81b606482015260840160405180910390fd5b6001600160a01b0392831660a052929091166080526001600160401b0390811660c0521660e052610144565b80516001600160a01b03811681146100d457600080fd5b919050565b80516001600160401b03811681146100d457600080fd5b6000806000806080858703121561010657600080fd5b61010f856100bd565b935061011d602086016100bd565b925061012b604086016100d9565b9150610139606086016100d9565b905092959194509250565b60805160a05160c05160e05161082d61019e6000396000818160aa0152818161031a015261036f015260006102b60152600081816101540152818161020f015261026201526000818160e50152610283015261082d6000f3fe608060405234801561001057600080fd5b506004361061007d5760003560e01c806386d1a69f1161005b57806386d1a69f1461010f5780639613252114610119578063be9a655514610121578063fbccedae1461012957600080fd5b80630a17b06b146100825780630fb5a6b4146100a857806338af3eed146100d8575b600080fd5b61009561009036600461068d565b610131565b6040519081526020015b60405180910390f35b7f000000000000000000000000000000000000000000000000000000000000000067ffffffffffffffff16610095565b6040516001600160a01b037f000000000000000000000000000000000000000000000000000000000000000016815260200161009f565b6101176101dd565b005b600054610095565b6100956102ab565b6100956102d9565b60006101d761013f60005490565b6040516370a0823160e01b81523060048201527f00000000000000000000000000000000000000000000000000000000000000006001600160a01b0316906370a0823190602401602060405180830381865afa1580156101a3573d6000803e3d6000fd5b505050506040513d601f19601f820116820180604052508101906101c791906106b7565b6101d191906106e6565b836102f5565b92915050565b60006101e76102d9565b9050806000808282546101fa91906106e6565b90915550506040518181526001600160a01b037f000000000000000000000000000000000000000000000000000000000000000016907fc0e523490dd523c33b1878c9eb14ff46991e3f5b2cd33710918618f2a39cba1b9060200160405180910390a26102a87f00000000000000000000000000000000000000000000000000000000000000007f0000000000000000000000000000000000000000000000000000000000000000836103cf565b50565b67ffffffffffffffff7f00000000000000000000000000000000000000000000000000000000000000001690565b600080546102e642610131565b6102f091906106fe565b905090565b60006102ff6102ab565b8267ffffffffffffffff161015610318575060006101d7565b7f000000000000000000000000000000000000000000000000000000000000000067ffffffffffffffff1661034b6102ab565b61035591906106e6565b8267ffffffffffffffff16111561036d5750816101d7565b7f000000000000000000000000000000000000000000000000000000000000000067ffffffffffffffff166103a06102ab565b6103b49067ffffffffffffffff85166106fe565b6103be9085610715565b6103c89190610734565b9392505050565b604080516001600160a01b038416602482015260448082018490528251808303909101815260649091019091526020810180516001600160e01b031663a9059cbb60e01b179052610421908490610426565b505050565b600061047b826040518060400160405280602081526020017f5361666545524332303a206c6f772d6c6576656c2063616c6c206661696c6564815250856001600160a01b03166104fd9092919063ffffffff16565b80519091501561042157808060200190518101906104999190610756565b6104215760405162461bcd60e51b815260206004820152602a60248201527f5361666545524332303a204552433230206f7065726174696f6e20646964206e6044820152691bdd081cdd58d8d9595960b21b60648201526084015b60405180910390fd5b606061050c8484600085610514565b949350505050565b6060824710156105755760405162461bcd60e51b815260206004820152602660248201527f416464726573733a20696e73756666696369656e742062616c616e636520666f6044820152651c8818d85b1b60d21b60648201526084016104f4565b600080866001600160a01b0316858760405161059191906107a8565b60006040518083038185875af1925050503d80600081146105ce576040519150601f19603f3d011682016040523d82523d6000602084013e6105d3565b606091505b50915091506105e4878383876105ef565b979650505050505050565b6060831561065e578251600003610657576001600160a01b0385163b6106575760405162461bcd60e51b815260206004820152601d60248201527f416464726573733a2063616c6c20746f206e6f6e2d636f6e747261637400000060448201526064016104f4565b508161050c565b61050c83838151156106735781518083602001fd5b8060405162461bcd60e51b81526004016104f491906107c4565b60006020828403121561069f57600080fd5b813567ffffffffffffffff811681146103c857600080fd5b6000602082840312156106c957600080fd5b5051919050565b634e487b7160e01b600052601160045260246000fd5b600082198211156106f9576106f96106d0565b500190565b600082821015610710576107106106d0565b500390565b600081600019048311821515161561072f5761072f6106d0565b500290565b60008261075157634e487b7160e01b600052601260045260246000fd5b500490565b60006020828403121561076857600080fd5b815180151581146103c857600080fd5b60005b8381101561079357818101518382015260200161077b565b838111156107a2576000848401525b50505050565b600082516107ba818460208701610778565b9190910192915050565b60208152600082518060208401526107e3816040850160208701610778565b601f01601f1916919091016040019291505056fea2646970667358221220d3005fa3d3e802d237b82de5a660e151ad203faaf7cb71dcca3b0aa61719561064736f6c634300080d0033a26469706673582212204355d7733dfaa7ef0954e26a605d88708d687bb3fe5712dccbee31ac87db58cc64736f6c634300080d003360806040523480156200001157600080fd5b5060405162000c8738038062000c8783398101604081905262000034916200024a565b604080518082018252600981526805669727475737761760bc1b6020808301918252835180850190945260048452635652535760e01b9084015281519192916200008191600391620001a4565b50805162000097906004906020840190620001a4565b505050620000d281620000af620000d960201b60201c565b620000bc90600a62000391565b620000cc90633b9aca00620003a2565b620000de565b506200041b565b601290565b6001600160a01b038216620001395760405162461bcd60e51b815260206004820152601f60248201527f45524332303a206d696e7420746f20746865207a65726f206164647265737300604482015260640160405180910390fd5b80600260008282546200014d9190620003c4565b90915550506001600160a01b038216600081815260208181526040808320805486019055518481527fddf252ad1be2c89b69c2b068fc378daa952ba7f163c4a11628f55a4df523b3ef910160405180910390a35050565b828054620001b290620003df565b90600052602060002090601f016020900481019282620001d6576000855562000221565b82601f10620001f157805160ff191683800117855562000221565b8280016001018555821562000221579182015b828111156200022157825182559160200191906001019062000204565b506200022f92915062000233565b5090565b5b808211156200022f576000815560010162000234565b6000602082840312156200025d57600080fd5b81516001600160a01b03811681146200027557600080fd5b9392505050565b634e487b7160e01b600052601160045260246000fd5b600181815b80851115620002d3578160001904821115620002b757620002b76200027c565b80851615620002c557918102915b93841c939080029062000297565b509250929050565b600082620002ec575060016200038b565b81620002fb575060006200038b565b81600181146200031457600281146200031f576200033f565b60019150506200038b565b60ff8411156200033357620003336200027c565b50506001821b6200038b565b5060208310610133831016604e8410600b841016171562000364575081810a6200038b565b62000370838362000292565b80600019048211156200038757620003876200027c565b0290505b92915050565b60006200027560ff841683620002db565b6000816000190483118215151615620003bf57620003bf6200027c565b500290565b60008219821115620003da57620003da6200027c565b500190565b600181811c90821680620003f457607f821691505b6020821081036200041557634e487b7160e01b600052602260045260246000fd5b50919050565b61085c806200042b6000396000f3fe608060405234801561001057600080fd5b50600436106100a95760003560e01c80633950935111610071578063395093511461012357806370a082311461013657806395d89b411461015f578063a457c2d714610167578063a9059cbb1461017a578063dd62ed3e1461018d57600080fd5b806306fdde03146100ae578063095ea7b3146100cc57806318160ddd146100ef57806323b872dd14610101578063313ce56714610114575b600080fd5b6100b66101a0565b6040516100c3919061069a565b60405180910390f35b6100df6100da36600461070b565b610232565b60405190151581526020016100c3565b6002545b6040519081526020016100c3565b6100df61010f366004610735565b61024a565b604051601281526020016100c3565b6100df61013136600461070b565b61026e565b6100f3610144366004610771565b6001600160a01b031660009081526020819052604090205490565b6100b6610290565b6100df61017536600461070b565b61029f565b6100df61018836600461070b565b61031f565b6100f361019b366004610793565b61032d565b6060600380546101af906107c6565b80601f01602080910402602001604051908101604052809291908181526020018280546101db906107c6565b80156102285780601f106101fd57610100808354040283529160200191610228565b820191906000526020600020905b81548152906001019060200180831161020b57829003601f168201915b5050505050905090565b600033610240818585610358565b5060019392505050565b60003361025885828561047c565b6102638585856104f6565b506001949350505050565b600033610240818585610281838361032d565b61028b9190610800565b610358565b6060600480546101af906107c6565b600033816102ad828661032d565b9050838110156103125760405162461bcd60e51b815260206004820152602560248201527f45524332303a2064656372656173656420616c6c6f77616e63652062656c6f77604482015264207a65726f60d81b60648201526084015b60405180910390fd5b6102638286868403610358565b6000336102408185856104f6565b6001600160a01b03918216600090815260016020908152604080832093909416825291909152205490565b6001600160a01b0383166103ba5760405162461bcd60e51b8152602060048201526024808201527f45524332303a20617070726f76652066726f6d20746865207a65726f206164646044820152637265737360e01b6064820152608401610309565b6001600160a01b03821661041b5760405162461bcd60e51b815260206004820152602260248201527f45524332303a20617070726f766520746f20746865207a65726f206164647265604482015261737360f01b6064820152608401610309565b6001600160a01b0383811660008181526001602090815260408083209487168084529482529182902085905590518481527f8c5be1e5ebec7d5bd14f71427d1e84f3dd0314c0f7b2291e5b200ac8c7c3b925910160405180910390a3505050565b6000610488848461032d565b905060001981146104f057818110156104e35760405162461bcd60e51b815260206004820152601d60248201527f45524332303a20696e73756666696369656e7420616c6c6f77616e63650000006044820152606401610309565b6104f08484848403610358565b50505050565b6001600160a01b03831661055a5760405162461bcd60e51b815260206004820152602560248201527f45524332303a207472616e736665722066726f6d20746865207a65726f206164604482015264647265737360d81b6064820152608401610309565b6001600160a01b0382166105bc5760405162461bcd60e51b815260206004820152602360248201527f45524332303a207472616e7366657220746f20746865207a65726f206164647260448201526265737360e81b6064820152608401610309565b6001600160a01b038316600090815260208190526040902054818110156106345760405162461bcd60e51b815260206004820152602660248201527f45524332303a207472616e7366657220616d6f756e7420657863656564732062604482015265616c616e636560d01b6064820152608401610309565b6001600160a01b03848116600081815260208181526040808320878703905593871680835291849020805487019055925185815290927fddf252ad1be2c89b69c2b068fc378daa952ba7f163c4a11628f55a4df523b3ef910160405180910390a36104f0565b600060208083528351808285015260005b818110156106c7578581018301518582016040015282016106ab565b818111156106d9576000604083870101525b50601f01601f1916929092016040019392505050565b80356001600160a01b038116811461070657600080fd5b919050565b6000806040838503121561071e57600080fd5b610727836106ef565b946020939093013593505050565b60008060006060848603121561074a57600080fd5b610753846106ef565b9250610761602085016106ef565b9150604084013590509250925092565b60006020828403121561078357600080fd5b61078c826106ef565b9392505050565b600080604083850312156107a657600080fd5b6107af836106ef565b91506107bd602084016106ef565b90509250929050565b600181811c908216806107da57607f821691505b6020821081036107fa57634e487b7160e01b600052602260045260246000fd5b50919050565b6000821982111561082157634e487b7160e01b600052601160045260246000fd5b50019056fea264697066735822122093cd0d9e0f0d05df41602a7f12e036129b433887850750c6bb232cb9d5d9a59364736f6c634300080d003360a060405234801561001057600080fd5b5060405161063c38038061063c83398101604081905261002f91610040565b6001600160a01b0316608052610070565b60006020828403121561005257600080fd5b81516001600160a01b038116811461006957600080fd5b9392505050565b6080516105a46100986000396000818160db015281816101bb015261023a01526105a46000f3fe608060405234801561001057600080fd5b50600436106100885760003560e01c806340c10f191161005b57806340c10f191461013b57806370a082311461015057806395d89b41146101795780639dc29fac1461019d57600080fd5b806306fdde031461008d57806307546172146100d657806318160ddd14610115578063313ce5671461012c575b600080fd5b6100c0604051806040016040528060148152602001730476f7665726e616e6365205669727475737761760641b81525081565b6040516100cd919061048b565b60405180910390f35b6100fd7f000000000000000000000000000000000000000000000000000000000000000081565b6040516001600160a01b0390911681526020016100cd565b61011e60015481565b6040519081526020016100cd565b604051601281526020016100cd565b61014e6101493660046104fc565b6101b0565b005b61011e61015e366004610526565b6001600160a01b031660009081526020819052604090205490565b6100c060405180604001604052806005815260200164675652535760d81b81525081565b61014e6101ab3660046104fc565b61022f565b336001600160a01b037f000000000000000000000000000000000000000000000000000000000000000016146102215760405162461bcd60e51b81526020600482015260116024820152702b2929ab9d1037b7363c9036b4b73a32b960791b60448201526064015b60405180910390fd5b61022b82826102a5565b5050565b336001600160a01b037f0000000000000000000000000000000000000000000000000000000000000000161461029b5760405162461bcd60e51b81526020600482015260116024820152702b2929ab9d1037b7363c9036b4b73a32b960791b6044820152606401610218565b61022b8282610364565b6001600160a01b0382166102fb5760405162461bcd60e51b815260206004820152601e60248201527f565253573a206d696e7420746f20746865207a65726f206164647265737300006044820152606401610218565b806001600082825461030d9190610548565b90915550506001600160a01b038216600081815260208181526040808320805486019055518481527fddf252ad1be2c89b69c2b068fc378daa952ba7f163c4a11628f55a4df523b3ef910160405180910390a35050565b6001600160a01b0382166103ba5760405162461bcd60e51b815260206004820181905260248201527f565253573a206275726e2066726f6d20746865207a65726f20616464726573736044820152606401610218565b6001600160a01b0382166000908152602081905260409020548181101561042d5760405162461bcd60e51b815260206004820152602160248201527f565253573a206275726e20616d6f756e7420657863656564732062616c616e636044820152606560f81b6064820152608401610218565b6001600160a01b0383166000818152602081815260408083208686039055600180548790039055518581529192917fddf252ad1be2c89b69c2b068fc378daa952ba7f163c4a11628f55a4df523b3ef910160405180910390a3505050565b600060208083528351808285015260005b818110156104b85785810183015185820160400152820161049c565b818111156104ca576000604083870101525b50601f01601f1916929092016040019392505050565b80356001600160a01b03811681146104f757600080fd5b919050565b6000806040838503121561050f57600080fd5b610518836104e0565b946020939093013593505050565b60006020828403121561053857600080fd5b610541826104e0565b9392505050565b6000821982111561056957634e487b7160e01b600052601160045260246000fd5b50019056fea26469706673582212202dfc175c629d3fb400b7dbefb598f183fad9e47aecf3a6271a379d36ea5c6da764736f6c634300080d0033",
  "linkReferences": {},
  "deployedLinkReferences": {}
}