{
  "_format": "hh-sol-artifact-1",
  "contractName": "vStakerFactory",
  "sourceName": "contracts/vStakerFactory.sol",
  "abi": [
    {
      "inputs": [
        {
          "internalType": "address",
          "name": "_vrswToken",
          "type": "address"
        },
        {
          "internalType": "address",
          "name": "_minter",
          "type": "address"
        },
        {
          "internalType": "address",
          "name": "_tokenomicsParams",
          "type": "address"
        }
      ],
      "stateMutability": "nonpayable",
      "type": "constructor"
    },
    {
      "anonymous": false,
      "inputs": [
        {
          "indexed": false,
          "internalType": "address",
          "name": "stakerAddress",
          "type": "address"
        },
        {
          "indexed": false,
          "internalType": "address",
          "name": "factory",
          "type": "address"
        },
        {
          "indexed": false,
          "internalType": "address",
          "name": "lpToken",
          "type": "address"
        }
      ],
      "name": "StakerCreated",
      "type": "event"
    },
    {
      "anonymous": false,
      "inputs": [
        {
          "indexed": false,
          "internalType": "address",
          "name": "newAdmin",
          "type": "address"
        }
      ],
      "name": "StakerFactoryNewAdmin",
      "type": "event"
    },
    {
      "anonymous": false,
      "inputs": [
        {
          "indexed": false,
          "internalType": "address",
          "name": "newPendingAdmin",
          "type": "address"
        }
      ],
      "name": "StakerFactoryNewPendingAdmin",
      "type": "event"
    },
    {
      "inputs": [],
      "name": "acceptAdmin",
      "outputs": [],
      "stateMutability": "nonpayable",
      "type": "function"
    },
    {
      "inputs": [],
      "name": "admin",
      "outputs": [
        {
          "internalType": "address",
          "name": "",
          "type": "address"
        }
      ],
      "stateMutability": "view",
      "type": "function"
    },
    {
      "inputs": [
        {
          "internalType": "uint256",
          "name": "",
          "type": "uint256"
        }
      ],
      "name": "allStakers",
      "outputs": [
        {
          "internalType": "address",
          "name": "",
          "type": "address"
        }
      ],
      "stateMutability": "view",
      "type": "function"
    },
    {
      "inputs": [
        {
          "internalType": "address",
          "name": "_lpToken",
          "type": "address"
        }
      ],
      "name": "createPoolStaker",
      "outputs": [
        {
          "internalType": "address",
          "name": "staker",
          "type": "address"
        }
      ],
      "stateMutability": "nonpayable",
      "type": "function"
    },
    {
      "inputs": [
        {
          "internalType": "address",
          "name": "_lpToken",
          "type": "address"
        }
      ],
      "name": "getPoolStaker",
      "outputs": [
        {
          "internalType": "address",
          "name": "",
          "type": "address"
        }
      ],
      "stateMutability": "view",
      "type": "function"
    },
    {
      "inputs": [],
      "name": "minter",
      "outputs": [
        {
          "internalType": "address",
          "name": "",
          "type": "address"
        }
      ],
      "stateMutability": "view",
      "type": "function"
    },
    {
      "inputs": [],
      "name": "pendingAdmin",
      "outputs": [
        {
          "internalType": "address",
          "name": "",
          "type": "address"
        }
      ],
      "stateMutability": "view",
      "type": "function"
    },
    {
      "inputs": [
        {
          "internalType": "address",
          "name": "newPendingAdmin",
          "type": "address"
        }
      ],
      "name": "setPendingAdmin",
      "outputs": [],
      "stateMutability": "nonpayable",
      "type": "function"
    },
    {
      "inputs": [
        {
          "internalType": "address",
          "name": "",
          "type": "address"
        }
      ],
      "name": "stakers",
      "outputs": [
        {
          "internalType": "address",
          "name": "",
          "type": "address"
        }
      ],
      "stateMutability": "view",
      "type": "function"
    },
    {
      "inputs": [],
      "name": "tokenomicsParams",
      "outputs": [
        {
          "internalType": "address",
          "name": "",
          "type": "address"
        }
      ],
      "stateMutability": "view",
      "type": "function"
    },
    {
      "inputs": [],
      "name": "vrswToken",
      "outputs": [
        {
          "internalType": "address",
          "name": "",
          "type": "address"
        }
      ],
      "stateMutability": "view",
      "type": "function"
    }
  ],
  "bytecode": "0x60e060405234801561001057600080fd5b50604051613dea380380613dea83398101604081905261002f9161007a565b600280546001600160a01b031916331790556001600160a01b0392831660805290821660a0521660c0526100bd565b80516001600160a01b038116811461007557600080fd5b919050565b60008060006060848603121561008f57600080fd5b6100988461005e565b92506100a66020850161005e565b91506100b46040850161005e565b90509250925092565b60805160a05160c051613cea6101006000396000818161016001526103a201526000818160b3015261038101526000818161013901526103600152613cea6000f3fe608060405234801561001057600080fd5b50600436106100a95760003560e01c806355b696981161007157806355b696981461013457806358d6b9e21461015b57806374a9430b146101825780639168ae72146101ae578063c3214d6c146101d7578063f851a440146101ea57600080fd5b806307546172146100ae5780630e18b681146100f157806326782247146100fb57806328bfc9501461010e5780634dd18bf514610121575b600080fd5b6100d57f000000000000000000000000000000000000000000000000000000000000000081565b6040516001600160a01b03909116815260200160405180910390f35b6100f96101fd565b005b6003546100d5906001600160a01b031681565b6100d561011c366004610588565b6102be565b6100f961012f366004610588565b6104be565b6100d57f000000000000000000000000000000000000000000000000000000000000000081565b6100d57f000000000000000000000000000000000000000000000000000000000000000081565b6100d5610190366004610588565b6001600160a01b039081166000908152602081905260409020541690565b6100d56101bc366004610588565b6000602081905290815260409020546001600160a01b031681565b6100d56101e53660046105b8565b610551565b6002546100d5906001600160a01b031681565b331580159061021657506003546001600160a01b031633145b6102605760405162461bcd60e51b815260206004820152601660248201527527b7363c903337b9103832b73234b7339030b236b4b760511b60448201526064015b60405180910390fd5b60038054600280546001600160a01b0383166001600160a01b031991821681179092559091169091556040519081527f567fbc424452b0970664d2ac01186e555bc81794165681de3ff5a0ac256aedae9060200160405180910390a1565b60006001600160a01b0382166103055760405162461bcd60e51b815260206004820152600c60248201526b7a65726f206164647265737360a01b6044820152606401610257565b6001600160a01b03828116600090815260208190526040902054161561035d5760405162461bcd60e51b815260206004820152600d60248201526c7374616b65722065786973747360981b6044820152606401610257565b817f00000000000000000000000000000000000000000000000000000000000000007f00000000000000000000000000000000000000000000000000000000000000007f00000000000000000000000000000000000000000000000000000000000000006040516103cd9061057b565b6001600160a01b039485168152928416602084015290831660408301529091166060820152608001604051809103906000f080158015610411573d6000803e3d6000fd5b506001600160a01b0383811660008181526020818152604080832080546001600160a01b031990811696881696871790915560018054808201825594527fb10e2d527612073b26eecdfd717e6a320cf44b4afac2b0732d9fcbe2b7fa0cf690930180549093168517909255815193845230908401528201529091507fcb5f630d200275982f2a77b5c1fcf42b415e9633a976e977a0056ec11ab5a1ff9060600160405180910390a1919050565b6002546001600160a01b031633146104fd5760405162461bcd60e51b81526020600482015260026024820152614f4160f01b6044820152606401610257565b600380546001600160a01b0319166001600160a01b0383169081179091556040519081527fbb77105d3bbe89c94415c8ab195f1ffb46b507d629988fef36f2ae982d2d29f89060200160405180910390a150565b6001818154811061056157600080fd5b6000918252602090912001546001600160a01b0316905081565b6136e3806105d283390190565b60006020828403121561059a57600080fd5b81356001600160a01b03811681146105b157600080fd5b9392505050565b6000602082840312156105ca57600080fd5b503591905056fe6101006040523480156200001257600080fd5b50604051620036e3380380620036e3833981016040819052620000359162000076565b6001600160a01b0393841660805290831660a05290821660c0521660e052620000d3565b80516001600160a01b03811681146200007157600080fd5b919050565b600080600080608085870312156200008d57600080fd5b620000988562000059565b9350620000a86020860162000059565b9250620000b86040860162000059565b9150620000c86060860162000059565b905092959194509250565b60805160a05160c05160e051613519620001ca600039600081816103050152818161069a01528181611bb901528181611c7b01528181611d770152611e030152600081816102ab015281816107c601528181610a4d01528181610fcc0152611421015260008181610198015281816104bc01528181610804015281816108ae01528181610a8b01528181610b3e01528181610c5001528181610cf801528181611009015281816110fb0152818161127a0152818161145e015281816115440152818161172701528181611fb8015281816121f3015261228301526000818161032c01528181611221015261162f01526135196000f3fe608060405234801561001057600080fd5b506004361061018e5760003560e01c806358d6b9e2116100de578063923f846811610097578063d3f730fd11610071578063d3f730fd146103e5578063da40ef8014610405578063f037a8e714610418578063f41df0921461042b57600080fd5b8063923f8468146103b457806397746c76146103c7578063c2e8caf6146103dc57600080fd5b806358d6b9e2146103005780635fcbd2851461032757806361625dea1461034e5780637bd95a851461036e57806380aac0311461038e5780638e6c84a2146103a157600080fd5b80632e87eec41161014b5780633abd5015116101255780633abd5015146102735780634f66dc1f1461029357806355b69698146102a6578063584b62a1146102cd57600080fd5b80632e87eec41461024f5780632f297aac14610262578063372500ab1461026b57600080fd5b806307546172146101935780630b3471af146101d75780631866523a146101ee57806318955d961461020e5780631e795da9146102315780632e2528b114610246575b600080fd5b6101ba7f000000000000000000000000000000000000000000000000000000000000000081565b6040516001600160a01b0390911681526020015b60405180910390f35b6101e0600a5481565b6040519081526020016101ce565b6101e06101fc366004613108565b60016020526000908152604090205481565b61022161021c366004613108565b61044b565b60405190151581526020016101ce565b61024461023f366004613123565b61048f565b005b6101e060075481565b61024461025d36600461313c565b6108ac565b6101e060095481565b610244610b3c565b6101e0610281366004613108565b60006020819052908152604090205481565b6102446102a1366004613108565b610cf6565b6101ba7f000000000000000000000000000000000000000000000000000000000000000081565b6102e06102db36600461315e565b6110b3565b6040805194855260208501939093529183015260608201526080016101ce565b6101ba7f000000000000000000000000000000000000000000000000000000000000000081565b6101ba7f000000000000000000000000000000000000000000000000000000000000000081565b6101e061035c366004613108565b60026020526000908152604090205481565b6101e061037c366004613108565b60036020526000908152604090205481565b61024461039c366004613123565b6110f9565b6102446103af366004613123565b611278565b6102446103c2366004613123565b611504565b6103cf611686565b6040516101ce9190613188565b6101e060085481565b6101e06103f3366004613108565b60046020526000908152604090205481565b6101e0610413366004613108565b611718565b61024461042636600461313c565b611725565b6101e0610439366004613108565b60066020526000908152604090205481565b6001600160a01b0381166000908152600660205260408120541580159061048957506001600160a01b03821660009081526006602052604090205442115b92915050565b600081116104b85760405162461bcd60e51b81526004016104af906131ec565b60405180910390fd5b60007f00000000000000000000000000000000000000000000000000000000000000006001600160a01b031663925c3e476040518163ffffffff1660e01b8152600401602060405180830381865afa158015610518573d6000803e3d6000fd5b505050506040513d601f19601f8201168201806040525081019061053c9190613219565b90508042101561055e5760405162461bcd60e51b81526004016104af90613232565b6105673361192f565b33600090815260056020526040812080549091036105d557604080516080810182526000808252602080830182815293830182815260608401838152865460018181018955888652939094209451600490940290940192835593519082015591516002830155516003909101555b6000816000815481106105ea576105ea613255565b9060005260206000209060040201604051806080016040529081600082015481526020016001820154815260200160028201548152602001600382015481525050905060405180608001604052804281526020016000815260200161074d61065f6106548861196f565b606086015190611977565b61074761072e6107256107206106986106788c42613281565b61068190613298565b61069390670de0b6b3a76400006132b4565b61196f565b7f00000000000000000000000000000000000000000000000000000000000000006001600160a01b0316636c8ae38c6040518163ffffffff1660e01b8152600401602060405180830381865afa1580156106f6573d6000803e3d6000fd5b505050506040513d601f19601f8201168201806040525081019061071a9190613219565b90611990565b611a5d565b61071a8b61196f565b6040870151606088015161074191611990565b90611977565b90611ad4565b815260200161076961075e8761196f565b606085015190611977565b8152508260008154811061077f5761077f613255565b9060005260206000209060040201600082015181600001556020820151816001015560408201518160020155606082015181600301559050506107c133611b81565b6107ed7f0000000000000000000000000000000000000000000000000000000000000000333087611efb565b60405163134ea04560e21b81526001600160a01b037f00000000000000000000000000000000000000000000000000000000000000001690634d3a81149061083b9033908890600401613339565b600060405180830381600087803b15801561085557600080fd5b505af1158015610869573d6000803e3d6000fd5b505050507f7134c00e7c2eb5f46090bf307045192fcd7c4039fe0addc4619efb9176ac528c338560405161089e929190613339565b60405180910390a150505050565b7f00000000000000000000000000000000000000000000000000000000000000006001600160a01b031663925c3e476040518163ffffffff1660e01b8152600401602060405180830381865afa15801561090a573d6000803e3d6000fd5b505050506040513d601f19601f8201168201806040525081019061092e9190613219565b42101561094d5760405162461bcd60e51b81526004016104af90613232565b33600090815260056020526040812080549091036109bb57604080516080810182526000808252602080830182815293830182815260608401838152865460018181018955888652939094209451600490940290940192835593519082015591516002830155516003909101555b600083116109db5760405162461bcd60e51b81526004016104af906131ec565b60008211610a2b5760405162461bcd60e51b815260206004820152601a60248201527f696e73756666696369656e74206c6f636b206475726174696f6e00000000000060448201526064016104af565b610a343361192f565b610a3f338484611f6c565b610a4833611b81565b610a747f0000000000000000000000000000000000000000000000000000000000000000333086611efb565b60405163134ea04560e21b81526001600160a01b037f00000000000000000000000000000000000000000000000000000000000000001690634d3a811490610ac29033908790600401613339565b600060405180830381600087803b158015610adc57600080fd5b505af1158015610af0573d6000803e3d6000fd5b505060408051338152602081018790529081018590527fafd0eeb951d0b52b5690345d1e48c58853e957798410a75b042397fadeb2d373925060600190505b60405180910390a1505050565b7f00000000000000000000000000000000000000000000000000000000000000006001600160a01b031663925c3e476040518163ffffffff1660e01b8152600401602060405180830381865afa158015610b9a573d6000803e3d6000fd5b505050506040513d601f19601f82011682018060405250810190610bbe9190613219565b421015610bdd5760405162461bcd60e51b81526004016104af90613232565b610be63361192f565b6000610bf33360016120ee565b9050610c17610c018261196f565b3360009081526004602052604090205490611977565b33600081815260046020526040902091909155610c3390611b81565b8015610cba5760405163413918c960e11b81526001600160a01b037f00000000000000000000000000000000000000000000000000000000000000001690638272319290610c879033908590600401613339565b600060405180830381600087803b158015610ca157600080fd5b505af1158015610cb5573d6000803e3d6000fd5b505050505b7ffc30cddea38e2bf4d6ea7d3f9ed3b6ad7f176419f4963bd81318067a4aee73fe3382604051610ceb929190613339565b60405180910390a150565b7f00000000000000000000000000000000000000000000000000000000000000006001600160a01b031663925c3e476040518163ffffffff1660e01b8152600401602060405180830381865afa158015610d54573d6000803e3d6000fd5b505050506040513d601f19601f82011682018060405250810190610d789190613219565b421015610d975760405162461bcd60e51b81526004016104af90613232565b610da08161192f565b6001600160a01b038116600090815260056020526040812080549091600019918190610dce90600190613281565b9050805b8015610f8c5742858281548110610deb57610deb613255565b906000526020600020906004020160010154868381548110610e0f57610e0f613255565b906000526020600020906004020160000154610e2b9190613352565b1015610f1e57610e5b858281548110610e4657610e46613255565b90600052602060002090600402016003015490565b610e659084613352565b92508482610e728161336a565b935081548110610e8457610e84613255565b9060005260206000209060040201858281548110610ea457610ea4613255565b90600052602060002090600402016000820154816000015560018201548160010155600282015481600201556003820154816003015590505084805480610eed57610eed613381565b6000828152602081206004600019909301928302018181556001810182905560028101829055600301559055610f7c565b610f7984868381548110610f3457610f34613255565b906000526020600020906004020160000154878481548110610f5857610f58613255565b906000526020600020906004020160010154610f749190613352565b61217e565b93505b610f858161336a565b9050610dd2565b508260001914610f9c5782610f9f565b60005b6001600160a01b038616600090815260066020526040902055610fc185611b81565b811561107357610ff27f00000000000000000000000000000000000000000000000000000000000000008684612194565b6040516314f7118360e11b81526001600160a01b037f000000000000000000000000000000000000000000000000000000000000000016906329ee2306906110409033908690600401613339565b600060405180830381600087803b15801561105a57600080fd5b505af115801561106e573d6000803e3d6000fd5b505050505b7fe54ef0e41761d2faa48f74a04d21d55101be933cf9d6a4b4ebf92c3f75254cb885836040516110a4929190613339565b60405180910390a15050505050565b600560205281600052604060002081815481106110cf57600080fd5b60009182526020909120600490910201805460018201546002830154600390930154919450925084565b7f00000000000000000000000000000000000000000000000000000000000000006001600160a01b031663925c3e476040518163ffffffff1660e01b8152600401602060405180830381865afa158015611157573d6000803e3d6000fd5b505050506040513d601f19601f8201168201806040525081019061117b9190613219565b42101561119a5760405162461bcd60e51b81526004016104af90613232565b3360009081526020819052604090205481131580156111b95750600081115b6111d55760405162461bcd60e51b81526004016104af906131ec565b6111de3361192f565b6112006111ea8261196f565b33600090815260208190526040902054906121b8565b3360008181526020819052604090209190915561121c90611b81565b6112477f00000000000000000000000000000000000000000000000000000000000000003383612194565b7fbded124086ba6a5fd13c727b87833791d56b58a61ceac21a9985075dbbd067eb3382604051610ceb929190613339565b7f00000000000000000000000000000000000000000000000000000000000000006001600160a01b031663925c3e476040518163ffffffff1660e01b8152600401602060405180830381865afa1580156112d6573d6000803e3d6000fd5b505050506040513d601f19601f820116820180604052508101906112fa9190613219565b4210156113195760405162461bcd60e51b81526004016104af90613232565b33600090815260056020526040902080546113625760405162461bcd60e51b81526020600482015260096024820152686e6f207374616b657360b81b60448201526064016104af565b600082118015611387575061138381600081548110610e4657610e46613255565b8211155b6113a35760405162461bcd60e51b81526004016104af906131ec565b6113ac3361192f565b6113eb6113b88361196f565b826000815481106113cb576113cb613255565b9060005260206000209060040201600301546121b890919063ffffffff16565b816000815481106113fe576113fe613255565b90600052602060002090600402016003018190555061141c33611b81565b6114477f00000000000000000000000000000000000000000000000000000000000000003384612194565b6040516314f7118360e11b81526001600160a01b037f000000000000000000000000000000000000000000000000000000000000000016906329ee2306906114959033908690600401613339565b600060405180830381600087803b1580156114af57600080fd5b505af11580156114c3573d6000803e3d6000fd5b505050507ff8a9c9755132fabe079d616368840a9217e931f5546f744de08c988023b1963b33836040516114f8929190613339565b60405180910390a15050565b600081116115425760405162461bcd60e51b815260206004820152600b60248201526a1e995c9bc8185b5bdd5b9d60aa1b60448201526064016104af565b7f00000000000000000000000000000000000000000000000000000000000000006001600160a01b031663925c3e476040518163ffffffff1660e01b8152600401602060405180830381865afa1580156115a0573d6000803e3d6000fd5b505050506040513d601f19601f820116820180604052508101906115c49190613219565b4210156115e35760405162461bcd60e51b81526004016104af90613232565b6115ec3361192f565b61160e6115f88261196f565b3360009081526020819052604090205490611977565b3360008181526020819052604090209190915561162a90611b81565b6116567f0000000000000000000000000000000000000000000000000000000000000000333084611efb565b7ec9f551bf78c05cb9aad786a9fb31581b9b78ab8180af56172424ccb1d014cd3382604051610ceb929190613339565b336000908152600560209081526040808320805482518185028101850190935280835260609492939192909184015b8282101561170f5783829060005260206000209060040201604051806080016040529081600082015481526020016001820154815260200160028201548152602001600382015481525050815260200190600101906116b5565b50505050905090565b60006104898260006120ee565b7f00000000000000000000000000000000000000000000000000000000000000006001600160a01b031663925c3e476040518163ffffffff1660e01b8152600401602060405180830381865afa158015611783573d6000803e3d6000fd5b505050506040513d601f19601f820116820180604052508101906117a79190613219565b4210156117c65760405162461bcd60e51b81526004016104af90613232565b336000908152600560205260409020805461180f5760405162461bcd60e51b81526020600482015260096024820152686e6f207374616b657360b81b60448201526064016104af565b600083118015611834575061183081600081548110610e4657610e46613255565b8311155b6118505760405162461bcd60e51b81526004016104af906131ec565b600082116118a05760405162461bcd60e51b815260206004820152601a60248201527f696e73756666696369656e74206c6f636b206475726174696f6e00000000000060448201526064016104af565b6118a93361192f565b6118b56113b88461196f565b816000815481106118c8576118c8613255565b9060005260206000209060040201600301819055506118e8338484611f6c565b6118f133611b81565b60408051338152602081018590529081018390527fb8c8e4f4571278a2304764498e533696d1c4861213f7e1bea2e149464666b9b990606001610b2f565b611938816121c7565b6001600160a01b03909516600090815260036020908152604080832060019092529091206009969096559455600855909155600a55565b600081610489565b60006119896119868385613397565b90565b9392505050565b60008282600160ff1b8214806119a95750600160ff1b81145b156119c757604051630d01a11b60e21b815260040160405180910390fd5b600080600084126119d857836119dd565b836000035b9150600083126119ed57826119f2565b826000035b90506000611a008383612392565b90506001600160ff1b03811115611a345760405163cdaa009160e01b815260048101899052602481018890526044016104af565b60001985851813611a5081611a4c5782600003611986565b8290565b9998505050505050505050565b60008168023f2fa8f6da5b9d3119811215611a7b5750600092915050565b680736ea4425c11ac6318112611aa7576040516399bb754160e01b8152600481018490526024016104af565b6714057b7ef767814f8102611acc611ac7670de0b6b3a7640000835b0590565b612446565b949350505050565b60008282600160ff1b821480611aed5750600160ff1b81145b15611b0b5760405163b3c754a360e01b815260040160405180910390fd5b60008060008412611b1c5783611b21565b836000035b915060008312611b315782611b36565b826000035b90506000611b4d83670de0b6b3a7640000846124f0565b90506001600160ff1b03811115611a345760405163fdd8c1d760e01b815260048101899052602481018890526044016104af565b6001600160a01b03811660009081526005602052604081208054909190815b81811015611d5857611d46611d3f611ce6611cd7611c797f00000000000000000000000000000000000000000000000000000000000000006001600160a01b031663b13739296040518163ffffffff1660e01b8152600401602060405180830381865afa158015611c15573d6000803e3d6000fd5b505050506040513d601f19601f82011682018060405250810190611c399190613219565b611c738a8881548110611c4e57611c4e613255565b906000526020600020906004020160010154670de0b6b3a764000061069391906132b4565b906125c3565b7f00000000000000000000000000000000000000000000000000000000000000006001600160a01b0316634df7e3d06040518163ffffffff1660e01b8152600401602060405180830381865afa1580156106f6573d6000803e3d6000fd5b670de0b6b3a764000090611977565b61071a878581548110611cfb57611cfb613255565b906000526020600020906004020160020154888681548110611d1f57611d1f613255565b90600052602060002090600402016003015461199090919063ffffffff16565b8490611977565b9250611d51816133ee565b9050611ba0565b50611d6b82670de0b6b3a7640000611977565b91506000611ea2611dfe7f00000000000000000000000000000000000000000000000000000000000000006001600160a01b0316639faa3c916040518163ffffffff1660e01b8152600401602060405180830381865afa158015611dd3573d6000803e3d6000fd5b505050506040513d601f19601f82011682018060405250810190611df79190613219565b85906125c3565b61071a7f00000000000000000000000000000000000000000000000000000000000000006001600160a01b031663db1d0fd56040518163ffffffff1660e01b8152600401602060405180830381865afa158015611e5f573d6000803e3d6000fd5b505050506040513d601f19601f82011682018060405250810190611e839190613219565b6001600160a01b038916600090815260208190526040902054906125c3565b6001600160a01b038616600090815260026020526040902054909150611ed690611ecd9083906121b8565b60075490611977565b6007556001600160a01b03909416600090815260026020526040902093909355505050565b6040516001600160a01b0380851660248301528316604482015260648101829052611f669085906323b872dd60e01b906084015b60408051601f198184030181529190526020810180516001600160e01b03166001600160e01b031990931692909217909152612623565b50505050565b600060056000856001600160a01b03166001600160a01b0316815260200190815260200160002090508060405180608001604052804281526020018481526020016120426107206106987f00000000000000000000000000000000000000000000000000000000000000006001600160a01b031663925c3e476040518163ffffffff1660e01b8152600401602060405180830381865afa158015612014573d6000803e3d6000fd5b505050506040513d601f19601f820116820180604052508101906120389190613219565b6106789042613281565b81526020016120508661196f565b905281546001818101845560009384526020808520845160049094020192835583015190820155604082015160028201556060909101516003909101556120978342613352565b6001600160a01b03861660009081526006602052604090205490915080156120c8576120c3818361217e565b6120ca565b815b6001600160a01b039096166000908152600660205260409020959095555050505050565b6000806000808461210757612102866121c7565b612135565b600a546001600160a01b03871660009081526003602090815260408083205460085460019093529220546009545b50506001600160a01b0389166000908152600460205260409020549295509093509150612174906119869061216e846107478789611990565b906121b8565b9695505050505050565b600081831061218d5781611989565b5090919050565b6121b38363a9059cbb60e01b8484604051602401611f2f929190613339565b505050565b60006119896119868385613407565b60405163358c172360e21b8152306004820152600090819081908190819061225f906001600160a01b037f0000000000000000000000000000000000000000000000000000000000000000169063d6305c8c906024015b602060405180830381865afa15801561223b573d6000803e3d6000fd5b505050506040513d601f19601f820116820180604052508101906106939190613219565b60405163197acce960e01b81523060048201529095506122b2906001600160a01b037f0000000000000000000000000000000000000000000000000000000000000000169063197acce99060240161221e565b6001600160a01b038716600090815260016020526040812054919250906122da9083906121b8565b905060006122f3600954846121b890919063ffffffff16565b6001600160a01b03891660009081526002602052604090205490915061233c9061231d9084611990565b6001600160a01b038a1660009081526003602052604090205490611977565b955061235f6123568260075461199090919063ffffffff16565b60085490611977565b6001600160a01b0389166000908152600160205260409020549095506123859083611977565b9350505091939590929450565b60008080600019848609848602925082811083820303915050670de0b6b3a764000081106123dd5760405163090638d560e41b815260048101869052602481018590526044016104af565b6000670de0b6b3a7640000858709905081600003612409575050670de0b6b3a764000090049050610489565b620400008184030492109003600160ee1b02177faccb18165bd6fe31ae1cf318dc5b51eee0e1ba569b88cd74c1773b91fac1066902905092915050565b600081818112156124a35768033dd1780914b971141981121561246c5750600092915050565b61249c61247f611986611ac78460000390565b6ec097ce7bc90715b34b9f100000000081611ac357611ac36133d8565b91506124ea565b680a688906bd8b00000081126124cf5760405163e69458f960e01b8152600481018490526024016104af565b670de0b6b3a7640000604082901b05611acc611986826126f5565b50919050565b600080806000198587098587029250828110838203039150508060000361252a57838281612520576125206133d8565b0492505050611989565b83811061255b576040516307639aaf60e41b81526004810187905260248101869052604481018590526064016104af565b600084868809600260036001881981018916988990049182028318808302840302808302840302808302840302808302840302808302840302918202909203026000889003889004909101858311909403939093029303949094049190911702949350505050565b600082828183036125ec5780156125db5760006125e5565b670de0b6b3a76400005b925061261b565b670de0b6b3a764000081036126035784925061261b565b612618611ac761261287612e56565b86611990565b92505b505092915050565b6000612678826040518060400160405280602081526020017f5361666545524332303a206c6f772d6c6576656c2063616c6c206661696c6564815250856001600160a01b0316612fc99092919063ffffffff16565b8051909150156121b357808060200190518101906126969190613446565b6121b35760405162461bcd60e51b815260206004820152602a60248201527f5361666545524332303a204552433230206f7065726174696f6e20646964206e6044820152691bdd081cdd58d8d9595960b21b60648201526084016104af565b600160bf1b67ff00000000000000821615612802576780000000000000008216156127295768016a09e667f3bcc9090260401c5b674000000000000000821615612748576801306fe0a31b7152df0260401c5b672000000000000000821615612767576801172b83c7d517adce0260401c5b6710000000000000008216156127865768010b5586cf9890f62a0260401c5b6708000000000000008216156127a5576801059b0d31585743ae0260401c5b6704000000000000008216156127c457680102c9a3e778060ee70260401c5b6702000000000000008216156127e35768010163da9fb33356d80260401c5b67010000000000000082161561280257680100b1afa5abcbed610260401c5b66ff00000000000082161561290157668000000000000082161561282f5768010058c86da1c09ea20260401c5b664000000000000082161561284d576801002c605e2e8cec500260401c5b662000000000000082161561286b57680100162f3904051fa10260401c5b6610000000000000821615612889576801000b175effdc76ba0260401c5b66080000000000008216156128a757680100058ba01fb9f96d0260401c5b66040000000000008216156128c55768010002c5cc37da94920260401c5b66020000000000008216156128e3576801000162e525ee05470260401c5b66010000000000008216156129015768010000b17255775c040260401c5b65ff00000000008216156129f7576580000000000082161561292c576801000058b91b5bc9ae0260401c5b6540000000000082161561294957680100002c5c89d5ec6d0260401c5b652000000000008216156129665768010000162e43f4f8310260401c5b6510000000000082161561298357680100000b1721bcfc9a0260401c5b650800000000008216156129a05768010000058b90cf1e6e0260401c5b650400000000008216156129bd576801000002c5c863b73f0260401c5b650200000000008216156129da57680100000162e430e5a20260401c5b650100000000008216156129f7576801000000b1721835510260401c5b64ff00000000821615612ae457648000000000821615612a2057680100000058b90c0b490260401c5b644000000000821615612a3c5768010000002c5c8601cc0260401c5b642000000000821615612a58576801000000162e42fff00260401c5b641000000000821615612a745768010000000b17217fbb0260401c5b640800000000821615612a90576801000000058b90bfce0260401c5b640400000000821615612aac57680100000002c5c85fe30260401c5b640200000000821615612ac85768010000000162e42ff10260401c5b640100000000821615612ae457680100000000b17217f80260401c5b64ff00000000821615612bc9576380000000821615612b0c5768010000000058b90bfc0260401c5b6340000000821615612b27576801000000002c5c85fe0260401c5b6320000000821615612b4257680100000000162e42ff0260401c5b6310000000821615612b5d576801000000000b17217f0260401c5b6308000000821615612b7857680100000000058b90c00260401c5b6304000000821615612b935768010000000002c5c8600260401c5b6302000000821615612bae576801000000000162e4300260401c5b6301000000821615612bc95768010000000000b172180260401c5b62ff0000821615612ca45762800000821615612bee576801000000000058b90c0260401c5b62400000821615612c0857680100000000002c5c860260401c5b62200000821615612c225768010000000000162e430260401c5b62100000821615612c3c57680100000000000b17210260401c5b62080000821615612c565768010000000000058b910260401c5b62040000821615612c70576801000000000002c5c80260401c5b62020000821615612c8a57680100000000000162e40260401c5b62010000821615612ca4576801000000000000b1720260401c5b61ff00821615612d7657618000821615612cc757680100000000000058b90260401c5b614000821615612ce05768010000000000002c5d0260401c5b612000821615612cf9576801000000000000162e0260401c5b611000821615612d125768010000000000000b170260401c5b610800821615612d2b576801000000000000058c0260401c5b610400821615612d4457680100000000000002c60260401c5b610200821615612d5d57680100000000000001630260401c5b610100821615612d7657680100000000000000b10260401c5b60ff821615612e3f576080821615612d9757680100000000000000590260401c5b6040821615612daf576801000000000000002c0260401c5b6020821615612dc757680100000000000000160260401c5b6010821615612ddf576801000000000000000b0260401c5b6008821615612df757680100000000000000060260401c5b6004821615612e0f57680100000000000000030260401c5b6002821615612e2757680100000000000000010260401c5b6001821615612e3f57680100000000000000010260401c5b670de0b6b3a76400000260409190911c60bf031c90565b600081818113612e7c5760405163309fa7dd60e11b8152600481018490526024016104af565b6000670de0b6b3a76400008212612e9557506001612ebb565b50600019816ec097ce7bc90715b34b9f100000000081612eb757612eb76133d8565b0591505b6000612f47670de0b6b3a7640000840560016fffffffffffffffffffffffffffffffff821160071b91821c67ffffffffffffffff811160061b90811c63ffffffff811160051b90811c61ffff811160041b90811c60ff8111600390811b91821c600f811160021b90811c918211871b91821c969096119490961792909217171791909117919091171790565b9050670de0b6b3a7640000810283821d670de0b6b3a763ffff198101612f74575091909102949350505050565b671bc16d674ec800006706f05b59d3b200005b6000811315612fba57670de0b6b3a7640000838002059250818312612fb2579283019260019290921d915b60011d612f87565b50505091909102949350505050565b6060611acc848460008585600080866001600160a01b03168587604051612ff09190613494565b60006040518083038185875af1925050503d806000811461302d576040519150601f19603f3d011682016040523d82523d6000602084013e613032565b606091505b50915091506130438783838761304e565b979650505050505050565b606083156130bd5782516000036130b6576001600160a01b0385163b6130b65760405162461bcd60e51b815260206004820152601d60248201527f416464726573733a2063616c6c20746f206e6f6e2d636f6e747261637400000060448201526064016104af565b5081611acc565b611acc83838151156130d25781518083602001fd5b8060405162461bcd60e51b81526004016104af91906134b0565b80356001600160a01b038116811461310357600080fd5b919050565b60006020828403121561311a57600080fd5b611989826130ec565b60006020828403121561313557600080fd5b5035919050565b6000806040838503121561314f57600080fd5b50508035926020909101359150565b6000806040838503121561317157600080fd5b61317a836130ec565b946020939093013593505050565b602080825282518282018190526000919060409081850190868401855b828110156131df578151805185528681015187860152858101518686015260609081015190850152608090930192908501906001016131a5565b5091979650505050505050565b6020808252601390820152721a5b9cdd59999a58da595b9d08185b5bdd5b9d606a1b604082015260600190565b60006020828403121561322b57600080fd5b5051919050565b602080825260099082015268746f6f206561726c7960b81b604082015260600190565b634e487b7160e01b600052603260045260246000fd5b634e487b7160e01b600052601160045260246000fd5b6000828210156132935761329361326b565b500390565b6000600160ff1b82016132ad576132ad61326b565b5060000390565b60006001600160ff1b03818413828413808216868404861116156132da576132da61326b565b600160ff1b60008712828116878305891216156132f9576132f961326b565b600087129250878205871284841616156133155761331561326b565b8785058712818416161561332b5761332b61326b565b505050929093029392505050565b6001600160a01b03929092168252602082015260400190565b600082198211156133655761336561326b565b500190565b6000816133795761337961326b565b506000190190565b634e487b7160e01b600052603160045260246000fd5b600080821280156001600160ff1b03849003851316156133b9576133b961326b565b600160ff1b83900384128116156133d2576133d261326b565b50500190565b634e487b7160e01b600052601260045260246000fd5b6000600182016134005761340061326b565b5060010190565b60008083128015600160ff1b8501841216156134255761342561326b565b6001600160ff1b03840183138116156134405761344061326b565b50500390565b60006020828403121561345857600080fd5b8151801515811461198957600080fd5b60005b8381101561348357818101518382015260200161346b565b83811115611f665750506000910152565b600082516134a6818460208701613468565b9190910192915050565b60208152600082518060208401526134cf816040850160208701613468565b601f01601f1916919091016040019291505056fea2646970667358221220e0a8fb20ca43723392f3bf9516cca76b3806623fb6191071e6d8500ede2b214064736f6c634300080d0033a264697066735822122060b3a40fa3a54de1d1281fd9df4186ed75d9243bcf5a52a9487843a8c75b374b64736f6c634300080d0033",
  "linkReferences": {},
  "deployedLinkReferences": {}
}